:030000000200C833
:0C00C800787FE4F6D8FD75816302010F1B
:10015400060852BEF8500000060E52C5925F000019
:1001640020261403008E04F140ED0017E0E0E08542
:10017400430700A066FFFFFFE007A09E3C1F00D1DD
:10018400D1200F01FFE000034020263A7C000C043C
:10019400F140ED003FE0E0E085430700A066FFFF8B
:1001A400FFE0061F9E3C1F00D1C1200F01FFE000AD
:0201B4000C003D
:06026600F8E6FE08E6FFC9
:02026C00EEFFA3
:01026E00226D
:10021B00EA25E0240CF8E6FE08E6FF12026CAB07B9
:0B022B00EA25E0240CF8E6FE08E6FFE0
:0102360022A5
:10023700E4FFFE000000000FBF00010EBE0BF4BF7D
:02024700B8F10C
:010249002292
:0C0259007F027E687D0CDDFEDEFCDFFA1B
:010265002276
:0E024A0000007F027EAF7D6EDDFEDEFCDFFA7F
:010258002283
:09026F00D2B3D2B2C2B2C2B32272
:09027800C2B3C2B2D2B3D2B22269
:1001FC00E4FEEF30E704D2B28002C2B2D2B3C2B393
:0E020C00EF25E0FF0EBE08EAD2B2D2B3C2B3B5
:01021A0022C1
:1001B700EA25E02402F8E6FE08E6FF12026CAB0728
:1001C700EA25E02402F8E6FE08E6FF1202368F630E
:0601D700EA24FDFD7F900B
:1001DD00AE07AC0312026F1201FCAF051201FCAFAA
:0F01ED00041201FCAF631201FC12027802023708
:10000300E4F9C2CD1202597563D07BA87D177F90A6
:100013001201DD7A0412021B8F63AD027F9012017D
:10002300DD0ABA17F07A051201B71ABA02F9D2CD6E
:1000330030CC4EE9704BC2CD12024A30CC4312028F
:100043004A7A04EA25E02432120266AB07EA25E085
:1000530024321202308F63AD027F901201DD0ABA9F
:1000630017E17A05EA25E02408120266AB07EA25C0
:10007300E024081201CC1ABA02EA12024AD2CD795C
:100083000120CCACE9640170A7C2CD12024A20CC96
:100093009F12024A7563D07BA87D177F901201DD02
:1000A3007A0412021B8F63AD027F901201DD0ABA3C
:1000B30017F07A051201B71ABA02F912024AD2CD21
:0500C300E4F902003326
:1000D400020003E493A3F8E493A34003F68001F23F
:1000E40008DFF48029E493A3F85407240CC8C3332D
:1000F400C4540F4420C8834004F456800146F6DFFC
:10010400E4800B0102040810204080900154E47E36
:10011400019360BCA3FF543F30E509541FFEE493F0
:10012400A360010ECF54C025E060A840B8E493A3B7
:10013400FAE493A3F8E493A3C8C582C8CAC583CAE2
:10014400F0A3C8C582C8CAC583CADFE9DEE780BE9A
:0101B6000048
:00000001FF
